:100000000201B04C434420505553482042555454AB
:100010004F4E530020202020202020202020202070
:0500200020202020005B
:10002500C000788500D8FDD00022C000C001792825
:100035007868D8FED9FADAF6D001D00022D2941227
:100045000025C29422A2E79283A2E69282A2E592BB
:1000550081A2E49280120042120025A2E39283A2BB
:10006500E29282A2E19281A2E0928012004222D223
:100075009302004AC29302004AC294C0027A28122F
:10008500002FD00274331200797433120079743260
:100095001200797428120079740C12007974011217
:1000A5000079C0027A0212002FD00222E493600682
:1000B500120074A380F62244404480020079C0E017
:1000C500E8C4540F4430120074E8540F4430120051
:0400D50074D0E022E1
:1000D90075AC0075AD0075B30075B40075B10075E8
:1000E900B200438E1043878075985253C4DF5389F9
:1000F9000F438920758DF7D28EC28C438E085389A0
:10010900F043890122C28CC28D758CBF758A28D2B1
:100119008C308DFD2212010EDAFB22D200D201D2DF
:1001290002D203D204D295C280C281C282C283C2E2
:100139009320953A7A3212011E209532D280D281CB
:10014900D282D283D293C293A2959204D293C280CF
:10015900A2959203D280C281A2959202D281C282D3
:10016900A2959201D282C283A2959200D28322C023
:10017900E07401141200BCD0E07430A204340012FF
:1001890000747430A20334001200747430A2023473
:10019900001200747430A20134001200747430A289
:1001A9000034001200742275817F1200D912007E7A
:1001B900C0E07401141200BED0E0C083C082C0E068
:1001C9009000031200B1D0E0D082D083C0E0740166
:1001D900141200BCD0E0C083C082C0E090001412A9
:1001E90000B1D0E0D082D0831201241201787A3292
:0601F90012011E0201F1DB
:00000001FF
