:030000000205E610
:03000B000203FDF0
:03002B00020427A5
:10002E00546F3D30323043202020546A3D323043ED
:10003E0000733120202C20202020722020202C2004
:10004E002000743D202020202020205072656865FD
:10005E00617400743D20202020202020536F616B9E
:10006E00696E6700743D2020202020202020202053
:10007E0052616D7000743D202020202020202052DF
:10008E0065666C6F7700743D202020202020204371
:07009E006F6F6C696E6700D3
:1000A500C000788500D8FDD00022C000C0017928A5
:1000B5007868D8FED9FADAF6D001D00022D29412A7
:1000C50000A5C29422A2E79283A2E69282A2E592BB
:1000D50081A2E492801200C21200A5A2E39283A23B
:1000E500E29282A2E19281A2E092801200C222D223
:1000F500930200CAC2930200CAC294C0027A2812AF
:1001050000AFD00274331200F974331200F974325F
:100115001200F974281200F9740C1200F974011216
:1001250000F9C0027A021200AFD00222E493600601
:100135001200F4A380F622444044800200F9C0E096
:10014500E8C4540F44301200F4E8540F4430120050
:04015500F4D0E022E0
:100159003099FDC299F59922C0E0E8C4540F4430A2
:10016900120159E8540F4430120159D0E022C0E07D
:10017900C0D0C000C001C002E4F54AF54BF54CF50A
:100189004DF54E7A20E545A2E779047842E633F643
:1001990008D9FA7905784AE636D4F608D9F9DAE5BC
:1001A900D002D001D000D0D0D0E022C0E0C0D0C071
:1001B90000C001C002E4F54AF54BF54CF54DF54E8A
:1001C9007A20E545A2E779047842E633F608D9FAB8
:1001D9007905784AC0D0E6243320E70224D020E309
:1001E9000224FDD0D033F608D9EADAD6D002D001FC
:1001F900D000D0D0D0E022C0E0C0D0C000C001C043
:10020900027A207905C3784EE613C0D030E702247C
:10021900D030E30224FDF618D0D0D9EC7904784522
:10022900E613F618D9FADADBD002D001D000D0D023
:10023900D0E022C0E0C0D0E5422546F542E543358D
:1002490047F543E5443548F544E5453549F545D095
:10025900D0D0E022C0E0C0D0C3E5429546F542E5E2
:10026900439547F543E5449548F544E5459549F5F2
:1002790045D0D0D0E022C0E0C0D0C3E5429546E5E4
:10028900439547E5449548E54595499208D0D0D02E
:10029900E022C0E0C0D0C3E5469542E5479543E575
:1002A900489544E54995459208D0D0D0E022C0E070
:1002B900C0D0C208C3E54695427014E5479543701E
:1002C9000EE54895447008E54995457002D208D075
:1002D900D0D0E0221202B720080302029B221202A8
:1002E900B720080302027F22C0E0C0F0C0D0C000DE
:1002F900C001C002C003E5428546F0A4F8A9F0E5B3
:10030900438546F0A429F9E435F0FAE5428547F03A
:10031900A429F9E5F03AFAE433FBE5448546F0A46B
:100329002AFAE5F03BFBE5438547F0A42AFAE5F014
:100339003BFBE5428548F0A42AFAE5F03BFBE5459D
:100349008546F0A42BFBE5448547F0A42BFBE54348
:100359008548F0A42BFBE5428549F0A42BFB8B458E
:100369008A4489438842D003D002D001D000D0D03A
:10037900D0F0D0E022C0E0C0D0C000C001C002C0AF
:1003890003C0047C20E4F8F9FAFBC3E54233F542E3
:10039900E54333F543E54433F544E54533F545E8AD
:1003A90033F8E933F9EA33FAEB33FBC3E89546E965
:1003B9009547EA9548EB95494013E89546F8E9953C
:1003C90047F9EA9548FAEB9549FB434201DCBBD072
:1003D90004D003D002D001D000D0D0D0E022438E87
:1003E90008E58954F04401F589758CE0758A57D27E
:1003F900A9D28C22C28C758CE0758A57D28CB284B2
:100409003275C80075CDD775CC7975C9A075CBD7AC
:1004190075CA79753E00439B80D2CAD2AF22C2CF3A
:10042900C0D0C0E0053EC3E53F953EB39290E53E9E
:10043900B4640E753E00D209C28C300604D28CC257
:1004490006D0E0D0D032C0E074051412013CD0E0EF
:10045900C000A84E120143D000C000A84D120143AC
:10046900D000C000A84C120143D000C0E0742E1285
:1004790000F4D0E0C000A84B120143D000C000A88E
:100489004A120143D000C0E074061412013CD0E0C6
:1004990022C2EFD2EE30EFFDE5C2540FF8E5C3C436
:1004A900C0E0540FF9D0E054F048F82253E8F04383
:1004B900E8077542007543007544007545007D32B3
:1004C90053E8F043E80712049A88468947754800BB
:1004D90075490012023CDDEE7546327547007548D4
:1004E9000075490012037E7546B87547C475480002
:1004F9007549001202F17546FF75470F7548007579
:10050900490012037E7546647547007548007549B0
:10051900001202F175465B75470075480075490080
:1005290012037E7546297547007548007549001202
:10053900037E7546327547007548007549001202F9
:100549003C120177C0E074041412013ED0E0C000EF
:10055900A84B120143D000C000A84A120143D000A1
:1005690074821200F9C0E0743D1200F4D0E07A649C
:100579001205D322D200D201D202D203D204D295DB
:10058900C280C281C282C283C29320953C7A321250
:1005990005D3209534D280D281D282D283D293C21C
:1005A90093A2959200D293C280A2959201D280C261
:1005B90081A2959202D281C282A2959203D282C26D
:1005C90083A2959204D2837B0122C000C0017928BD
:1005D9007868D8FED9FADAF6D001D0002275817F81
:1005E90075AC0075AD0075B30075B40075B10075D3
:1005F900B200438E1043878075985253C4DF5389E4
:100609000F438920758DF7D28E43B38253B47D533E
:10061900E8F043E80775F60043F68143E101120368
:10062900E712040A1200FEC0E074011412013ED060
:10063900E0C083C082C0E090002E120131D0E0D02A
:1006490082D083C0E074011412013CD0E0C083C0A1
:1006590082C0E090003F120131D0E0D082D0837493
:1006690000F53DF5057430F53275423C754300756A
:100679004400754500854233854334753500753628
:10068900007542C8754300754400754500854237B9
:10069900854338753900753A007445F539E4D2CA8D
:1006A900C28C753F00E4C207C0E074011412013E18
:1006B900D0E0C083C082C0E090002E120131D0E0AA
:1006C900D082D083C0E074011412013CD0E0C08311
:1006D900C082C0E090003F120131D0E0D082D083C7
:1006E900C0E074031412013CD0E0C000A83212012A
:1006F90043D000C0E074051412013CD0E0853342B8
:10070900853443754400754500120177C000A84B34
:10071900120143D000C000A84A120143D000C0E032
:1007290074051412013CD0E0C0E0742C1200F4D01E
:10073900E0C0E0740A1412013CD0E08537428538E4
:1007490043754400754500120177C000A84B12019A
:1007590043D000C000A84A120143D000C0E0740A87
:100769001412013CD0E0C0E074721200F4D0E0C071
:10077900E0740E1412013CD0E0C0E0742C1200F4B5
:10078900D0E0C0E0740F1412013CD0E0C000A839D9
:10079900120143D00012057D7A321205D312057D6C
:1007A900300008300112300235801EE5322401D4B0
:1007B900B470127532308011E5322499D4B4290508
:1007C9007532708004F5328000C0E07403141201A0
:1007D9003CD0E0C000A832120143D00080B7120516
:1007E9007D7A321205D312057D30000830010930B7
:1007F900024A80080533800415338000C0E074057F
:100809001412013CD0E085334285344375440075A8
:100819004500120177C000A84B120143D000C00067
:10082900A84A120143D000C0E074051412013CD05B
:10083900E0C0E0742C1200F4D0E080A212057D7AA9
:10084900321205D312057D300008300109300263E8
:1008590080EA0537800A15378006F5378002F537B3
:10086900C0E0740A1412013CD0E085374285384350
:10087900754400754500120177C000A84B12014369
:10088900D000C000A84A120143D000C0E0740A1485
:1008990012013CD0E0C0E074721200F4D0E0C0E074
:1008A900740E1412013CD0E0C0E0742C1200F4D094
:1008B900E0808912057D7A321205D312057D300058
:1008C9000830011230023780EAE5392401D4B480B6
:1008D900127539408013E5392499D4B4390575392D
:1008E900808006F5398002F539C0E0740F141201D1
:1008F9003CD0E0C000A839120143D00080B51205F0
:100909007D7A321205D312057D2004F2020918E41A
:1009190074011200F97A021205D3C0E074011412AD
:10092900013ED0E0C083C082C0E090002E120131A8
:10093900D0E0D082D083753F64D206E5322451F5E8
:1009490032C0E074011412013CD0E0C083C082C0FF
:10095900E0900050120131D0E0D082D083E4753CA0
:100969000030092FC28C1204B5E53C2401D4F53CB2
:10097900C0E074031412013CD0E0C000A83C12018D
:1009890043D000C000A84A120161D000740A1201C4
:1009990059C20985324675470075480075490012E4
:1009A900029B200825754632754700754800754930
:1009B9000012029B20080A7E00AE3CBE60030206BC
:1009C900A612057D20049A0206A6E474011200F914
:1009D9007A021205D3C0E074011412013ED0E0C0BE
:1009E90083C082C0E090002E120131D0E0D082D0C5
:1009F90083753F14D206C0E074011412013CD0E0A3
:100A0900C083C082C0E0900061120131D0E0D08281
:100A1900D083E4F53C30092FC28C1204B5E53C249F
:100A290001D4F53CC0E074031412013CD0E0C000CD
:100A3900A83C120143D000C000A84A120161D000AD
:100A4900740A120159C2098533427543007544007D
:100A5900754500120177E54AB53C02800912057D0A
:100A69002004B20206A6E474011200F97A02120502
:100A7900D3C0E074011412013ED0E0C083C082C02B
:100A8900E090002E120131D0E0D082D083753F640E
:100A9900E4F53CD206C0E074011412013CD0E0C078
:100AA90083C082C0E0900072120131D0E0D082D0C0
:100AB90083300934C28C1204B5E53C2401D4F53CD9
:100AC900C0E074031412013CD0E0C000A83C12013C
:100AD90043D0007443120159C000A84A120161D0E1
:100AE90000740A120159C209853746853847754885
:100AF9000075490012029B20080C12057D2004B1E3
:100B0900753D000206A6E474011200F97A02120585
:100B1900D3C0E074011412013ED0E0C083C082C08A
:100B2900E090002E120131D0E0D082D083753F14BD
:100B3900D206C0E074011412013CD0E0C083C08227
:100B4900C0E0900083120131D0E0D082D083E4F577
:100B59003C300934C28C1204B5E53C2401D4F53C7F
:100B6900C0E074031412013CD0E0C000A83C12019B
:100B790043D0007444120159C000A84A120161D03F
:100B890000740A120159C209E539B53C02800912FB
:100B9900057D2004BC0206A6E474011200F97A025C
:100BA9001205D3C0E074011412013ED0E0C083C025
:100BB90082C0E090002E120131D0E0D082D083753E
:100BC9003F00E4F53CD206C0E074011412013CD0A8
:100BD900E0C083C082C0E0900094120131D0E0D01F
:100BE90082D083300934C28C1204B5E53C2401D487
:100BF900F53CC0E074031412013CD0E0C000A83CED
:100C0900120143D0007445120159C000A84A1201CB
:100C190061D000740A120159C20975463C75470032
:100C290075480075490012027F20080912057D20C8
:080C390004B1753D000206A69E
:00000001FF
