:03000000020620D5
:03000B000203FDF0
:03002B00020427A5
:10002E00546F3D202020432020546A3D2020432041
:10003E0000732020202C202020722020202C202015
:10004E002000743D202020202020205072656865FD
:10005E00617400743D20202020202020536F616B9E
:10006E00696E6700743D2020202020202020202053
:10007E0052616D7000743D202020202020202052DF
:10008E0065666C6F7700743D202020202020204371
:07009E006F6F6C696E6700D3
:1000A500C000788500D8FDD00022C000C0017928A5
:1000B5007868D8FED9FADAF6D001D00022D29412A7
:1000C50000A5C29422A2E79283A2E69282A2E592BB
:1000D50081A2E492801200C21200A5A2E39283A23B
:1000E500E29282A2E19281A2E092801200C222D223
:1000F500930200CAC2930200CAC294C0027A2812AF
:1001050000AFD00274331200F974331200F974325F
:100115001200F974281200F9740C1200F974011216
:1001250000F9C0027A021200AFD00222E493600601
:100135001200F4A380F622444044800200F9C0E096
:10014500E8C4540F44301200F4E8540F4430120050
:04015500F4D0E022E0
:100159003099FDC299F59922C0E0E8C4540F4430A2
:10016900120159E8540F4430120159D0E022C0E07D
:10017900C0D0C000C001C002E4F543F544F545F51F
:1001890046F5477A20E53EA2E77904783BE633F65F
:1001990008D9FA79057843E636D4F608D9F9DAE5C3
:1001A900D002D001D000D0D0D0E022C0E0C0D0C071
:1001B90000C001C002E4F543F544F545F546F547AD
:1001C9007A20E53EA2E77904783BE633F608D9FAC6
:1001D90079057843C0D0E6243320E70224D020E310
:1001E9000224FDD0D033F608D9EADAD6D002D001FC
:1001F900D000D0D0D0E022C0E0C0D0C000C001C043
:10020900027A207905C37847E613C0D030E7022483
:10021900D030E30224FDF618D0D0D9EC7904783E29
:10022900E613F618D9FADADBD002D001D000D0D023
:10023900D0E022C0E0C0D0E53B253FF53BE53C35A9
:1002490040F53CE53D3541F53DE53E3542F53ED0CD
:10025900D0D0E022C0E0C0D0C3E53B953FF53BE5F7
:100269003C9540F53CE53D9541F53DE53E9542F52A
:100279003ED0D0D0E022C0E0C0D0C3E53B953FE5F9
:100289003C9540E53D9541E53E95429208D0D0D058
:10029900E022C0E0C0D0C3E53F953BE540953CE591
:1002A90041953DE542953E9208D0D0D0E022C0E08C
:1002B900C0D0C208C3E53F953B7014E540953C703A
:1002C9000EE541953D7008E542953E7002D208D091
:1002D900D0D0E0221202B720080302029B221202A8
:1002E900B720080302027F22C0E0C0F0C0D0C000DE
:1002F900C001C002C003E53B853FF0A4F8A9F0E5C1
:100309003C853FF0A429F9E435F0FAE53B8540F056
:10031900A429F9E5F03AFAE433FBE53D853FF0A479
:100329002AFAE5F03BFBE53C8540F0A42AFAE5F022
:100339003BFBE53B8541F0A42AFAE5F03BFBE53EB2
:10034900853FF0A42BFBE53D8540F0A42BFBE53C64
:100359008541F0A42BFBE53B8542F0A42BFB8B3EAA
:100369008A3D893C883BD003D002D001D000D0D04F
:10037900D0F0D0E022C0E0C0D0C000C001C002C0AF
:1003890003C0047C20E4F8F9FAFBC3E53B33F53BF1
:10039900E53C33F53CE53D33F53DE53E33F53EE8D7
:1003A90033F8E933F9EA33FAEB33FBC3E8953FE96C
:1003B9009540EA9541EB95424013E8953FF8E99558
:1003C90040F9EA9541FAEB9542FB433B01DCBBD08E
:1003D90004D003D002D001D000D0D0D0E022438E87
:1003E90008E58954F04401F589758CE0758A57D27E
:1003F900A9D28C22C28C758CE0758A57D28CB284B2
:100409003275C80075CDD775CC7975C9A075CBD7AC
:1004190075CA79753900439B80D2CAD2AF22C2CF3F
:10042900C0D0C0E00539C3E53A9539B39290E539B2
:10043900B4642E7539000537300513C0E074031410
:1004490012013CD0E0C000A837120143D0003006A9
:1004590007B28C200702C206C000A83B120161D076
:1004690000D0E0D0D032C0E074051412013CD0E0D5
:10047900C000A847120143D000C000A8461201439A
:10048900D000C000A845120143D000C000A8441202
:100499000143D000C000A843120143D000C0E0745A
:1004A900061412013CD0E022C2EFD2EE30EFFDE596
:1004B900C2540FF8E5C3C4C0E0540FF9D0E054F0BA
:1004C90048F82253E8F043E807753B00753C00758E
:1004D9003D00753E007D641204B1883F8940754135
:1004E9000075420012023CDDEE753F6475400075EF
:1004F900410075420012037E753FC87540C87541B9
:10050900007542001202F1753FFF75400F754100F9
:1005190075420012037E753FE87540037541007509
:1005290042001202F1753F64754000754100754241
:10053900001202F1753F1D75406375410175420056
:1005490012037E753F2975400075410075420012FE
:10055900037E753F14754000754100754200120213
:100569003C753F107540277541007542001202F134
:10057900120177C0E074051412013CD0E0C000A854
:1005890046120143D000C000A845120143D000C063
:10059900E0742E1200F4D0E0C000A844120143D048
:1005A90000C000A843120143D0007A3212060D227E
:1005B900D200D201D202D203D204D295C280C28122
:1005C900C282C283C29320953A7A3212060D2095CF
:1005D90032D280D281D282D283D293C293A295920F
:1005E90000D293C280A2959201D280C281A2959233
:1005F90002D281C282A2959203D282C283A295922B
:1006090004D28322C000C00179287868D8FED9FABB
:10061900DAF6D001D0002275AC0075AD0075B300D3
:1006290075B40075B10075B200438E1043878075AB
:10063900985253C4DF53890F438920758DF7D28EA1
:1006490043B30253B4FD53E8F043E80775F600439A
:10065900F68043E1011203E712040A1200FEC0E02A
:1006690074011412013ED0E0C083C082C0E0900042
:100679002E120131D0E0D082D083C0E0740114126F
:10068900013CD0E0C083C082C0E090003F1201313C
:10069900D0E0D082D0837400F538F505F532F53312
:1006A900F534F535E538D2CA753A00C207D206C025
:1006B900E074021412013CD0E0C000A832120143D8
:1006C900D000C0E074061412013CD0E0C000A83389
:1006D900120143D000C0E0740A1412013CD0E0C0FA
:1006E90000A834120143D000C0E0740E1412013C7A
:1006F900D0E0C000A835120143D0001205B930007E
:100709000830010930021D8006053280021532C009
:10071900E074021412013CD0E0C000A83212014377
:10072900D00080D71205B930000830010930021D08
:100739008006053380021533C0E074061412013CAB
:10074900D0E0C000A833120143D00080D71205B908
:1007590030000830010930021D80F205348002158D
:1007690034C0E0740A1412013CD0E0C000A834126D
:100779000143D00080D71205B93000083001093093
:10078900021D80F2053580021535C0E0740E141281
:10079900013CD0E0C000A835120143D00080D71237
:1007A90005B92004FA753801E538B40154753A647D
:1007B900E4F537D206D205C0E074011412013CD029
:1007C900E0C083C082C0E0900050120131D0E0D077
:1007D90082D0831204CC853D36E5369532400250ED
:1007E9001DE536943240025009E537943C40030236
:1007F90006AF1205B92004DB7538000206AF75385B
:1008090002E538B4023B753A14E4F537D206C0E084
:1008190074011412013CD0E0C083C082C0E0900092
:1008290061120131D0E0D082D083E537953340029F
:10083900500C1205B92004F27538000206AF75385C
:1008490003E538B40341753A64E4F537D206C0E0EC
:1008590074011412013CD0E0C083C082C0E0900052
:1008690072120131D0E0D082D0831204CC853D369A
:10087900E53695344002500C1205B92004EC753860
:10088900000206AF753804E538B4043B753A14E440
:10089900F537D206C0E074011412013CD0E0C083E0
:1008A900C082C0E0900083120131D0E0D082D083B1
:1008B900E53795354002500C1205B92004F2753818
:1008C900000206AF753805753A00C0E074011412CC
:1008D900013CD0E0C083C082C0E090009412013195
:1008E900D0E0D082D083E4F537D2061204CC854516
:1008F90036E536943C400250F2753800C20575372A
:0A09090000E537940640FA0206AF3D
:00000001FF
