:030000000205ED09
:03000B000203FDF0
:03002B00020427A5
:10002E00546F3D30323043202020546A3D323043ED
:10003E0000733120202C20202020722020202C2004
:10004E002000743D202020202020205072656865FD
:10005E00617400743D20202020202020536F616B9E
:10006E00696E6700743D2020202020202020202053
:10007E0052616D7000743D202020202020202052DF
:10008E0065666C6F7700743D202020202020204371
:07009E006F6F6C696E6700D3
:1000A500C000788500D8FDD00022C000C0017928A5
:1000B5007868D8FED9FADAF6D001D00022D29412A7
:1000C50000A5C29422A2E79283A2E69282A2E592BB
:1000D50081A2E492801200C21200A5A2E39283A23B
:1000E500E29282A2E19281A2E092801200C222D223
:1000F500930200CAC2930200CAC294C0027A2812AF
:1001050000AFD00274331200F974331200F974325F
:100115001200F974281200F9740C1200F974011216
:1001250000F9C0027A021200AFD00222E493600601
:100135001200F4A380F622444044800200F9C0E096
:10014500E8C4540F44301200F4E8540F4430120050
:04015500F4D0E022E0
:100159003099FDC299F59922C0E0E8C4540F4430A2
:10016900120159E8540F4430120159D0E022C0E07D
:10017900C0D0C000C001C002E4F54BF54CF54DF507
:100189004EF54F7A20E546A2E779047843E633F63F
:1001990008D9FA7905784BE636D4F608D9F9DAE5BB
:1001A900D002D001D000D0D0D0E022C0E0C0D0C071
:1001B90000C001C002E4F54BF54CF54DF54EF54F85
:1001C9007A20E546A2E779047843E633F608D9FAB6
:1001D9007905784BC0D0E6243320E70224D020E308
:1001E9000224FDD0D033F608D9EADAD6D002D001FC
:1001F900D000D0D0D0E022C0E0C0D0C000C001C043
:10020900027A207905C3784FE613C0D030E702247B
:10021900D030E30224FDF618D0D0D9EC7904784621
:10022900E613F618D9FADADBD002D001D000D0D023
:10023900D0E022C0E0C0D0E5432547F543E5443589
:1002490048F544E5453549F545E546354AF546D08D
:10025900D0D0E022C0E0C0D0C3E5439547F543E5DF
:10026900449548F544E5459549F545E546954AF5EA
:1002790046D0D0D0E022C0E0C0D0C3E5439547E5E1
:10028900449548E5459549E546954A9208D0D0D028
:10029900E022C0E0C0D0C3E5479543E5489544E571
:1002A900499545E54A95469208D0D0D0E022C0E06C
:1002B900C0D0C208C3E54795437014E5489544701A
:1002C9000EE54995457008E54A95467002D208D071
:1002D900D0D0E0221202B720080302029B221202A8
:1002E900B720080302027F22C0E0C0F0C0D0C000DE
:1002F900C001C002C003E5438547F0A4F8A9F0E5B1
:10030900448547F0A429F9E435F0FAE5438548F036
:10031900A429F9E5F03AFAE433FBE5458547F0A469
:100329002AFAE5F03BFBE5448548F0A42AFAE5F012
:100339003BFBE5438549F0A42AFAE5F03BFBE5469A
:100349008547F0A42BFBE5458548F0A42BFBE54444
:100359008549F0A42BFBE543854AF0A42BFB8B468A
:100369008A4589448843D003D002D001D000D0D037
:10037900D0F0D0E022C0E0C0D0C000C001C002C0AF
:1003890003C0047C20E4F8F9FAFBC3E54333F543E1
:10039900E54433F544E54533F545E54633F546E8A7
:1003A90033F8E933F9EA33FAEB33FBC3E89547E964
:1003B9009548EA9549EB954A4013E89547F8E99538
:1003C90048F9EA9549FAEB954AFB434301DCBBD06E
:1003D90004D003D002D001D000D0D0D0E022438E87
:1003E90008E58954F04401F589758CE0758A57D27E
:1003F900A9D28C22C28C758CE0758A57D28CB284B2
:100409003275C80075CDD775CC7975C9A075CBD7AC
:1004190075CA79753F00439B80D2CAD2AF22C2CF39
:10042900C0D0C0E0053FC3E540953FB39290E53F9A
:10043900B46415753F00D209C28C30060B300A042A
:10044900C28CC206D28CD20AD0E0D0D032C0E074BD
:10045900051412013CD0E0C000A84F120143D0009E
:10046900C000A84E120143D000C000A84D1201439C
:10047900D000C0E0742E1200F4D0E0C000A84C12E5
:100489000143D000C000A84B120143D000C0E07462
:10049900061412013CD0E022C2EFD2EE30EFFDE5A6
:1004A900C2540FF8E5C3C4C0E0540FF9D0E054F0CA
:1004B90048F82253E8F043E807754300754400758E
:1004C90045007546007D6453E8F043E8071204A12E
:1004D90088478948754900754A0012023CDDEE7566
:1004E9004764754800754900754A0012037E7547CF
:1004F900A87548C5754900754A001202F17547FF8C
:1005090075480F754900754A0012037E7547647571
:100519004800754900754A001202F1754729754866
:1005290001754900754A0012037E7547297548000F
:10053900754900754A0012037E75471C7548007598
:100549004900754A0012023C120177C0E074041494
:1005590012013ED0E0C000A84C120143D000C000F7
:10056900A84B120143D00074821200F9C0E0743D17
:100579001200F4D0E07A641205DA22D200D201D254
:1005890002D203D204D295C280C281C282C283C27E
:100599009320953C7A321205DA209534D280D281A3
:1005A900D282D283D293C293A2959200D293C2806F
:1005B900A2959201D280C281A2959202D281C28271
:1005C900A2959203D282C283A2959204D2837B011F
:1005D90022C000C00179287868D8FED9FADAF6D0A5
:1005E90001D0002275817F75AC0075AD0075B3002F
:1005F90075B40075B10075B200438E1043878075DC
:10060900985253C4DF53890F438920758DF7D28ED1
:1006190043B38253B47D53E8F043E80775F60043CA
:10062900F68143E1011203E712040A1200FEC0E059
:1006390074011412013ED0E0C083C082C0E0900072
:100649002E120131D0E0D082D083C0E0740114129F
:10065900013CD0E0C083C082C0E090003F1201316C
:10066900D0E0D082D0837400F53EF505F53D7430B5
:10067900F53275433C754400754500754600854360
:10068900338544347535007536007543C8754400A3
:1006990075450075460085433785443875390075B9
:1006A9003A007445F539E4D2CAC28C754000E4C2F7
:1006B90007D206C20AC0E074011412013ED0E0C09C
:1006C90083C082C0E090002E120131D0E0D082D0E8
:1006D90083C0E074011412013CD0E0C083C082C021
:1006E900E090003F120131D0E0D082D083C0E074A5
:1006F900031412013CD0E0C000A832120143D0001B
:10070900C0E074051412013CD0E0853343853444BC
:10071900754500754600120177C000A84C120143C7
:10072900D000C000A84B120143D000C0E0740514EA
:1007390012013CD0E0C0E0742C1200F4D0E0C0E01B
:10074900740A1412013CD0E0853743853844754555
:1007590000754600120177C000A84C120143D00071
:10076900C000A84B120143D000C0E0740A14120162
:100779003CD0E0C0E074721200F4D0E0C0E0740E26
:100789001412013CD0E0C0E0742C1200F4D0E0C097
:10079900E0740F1412013CD0E0C000A839120143E3
:1007A900D0001205847A321205DA12058430000865
:1007B900300112300235801EE5322401D4B47012A2
:1007C9007532308011E5322499D4B4290575327017
:1007D9008004F5328000C0E074031412013CD0E0BB
:1007E900C000A832120143D00080B71205847A32C2
:1007F9001205DA12058430000830010930024A80F6
:10080900080533800415338000C0E0740514120113
:100819003CD0E08533438534447545007546001264
:100829000177C000A84C120143D000C000A84B12A8
:100839000143D000C0E074051412013CD0E0C0E0CF
:10084900742C1200F4D0E080A21205847A321205C9
:10085900DA12058430000830010930026380EA05A4
:1008690037800A15378006F5378002F537C0E074FE
:100879000A1412013CD0E085374385384475450098
:10088900754600120177C000A84C120143D000C080
:1008990000A84B120143D000C0E0740A1412013CB5
:1008A900D0E0C0E074721200F4D0E0C0E0740E141D
:1008B90012013CD0E0C0E0742C1200F4D0E0808931
:1008C9001205847A321205DA1205843000083001E3
:1008D9001230023780EAE5392401D4B4801275391F
:1008E900408013E5392499D4B439057539808006D7
:1008F900F5398002F539C0E0740F1412013CD0E0DB
:10090900C000A839120143D00080B51205847A329B
:100919001205DA1205842004F2020925E474011291
:1009290000F97A021205DAC0E074011412013ED00E
:10093900E0C083C082C0E090002E120131D0E0D027
:1009490082D083754064E5322451F532D206C20A59
:10095900C0E074011412013CD0E0C083C082C0E041
:10096900900050120131D0E0D082D083E4753C0070
:1009790030097C1204BCE53C2401D4F53CB40007E1
:10098900E53D2401D4F53DC0E074031412013CD0C7
:10099900E0C000A83D120143D000C0E07405141264
:1009A900013CD0E0C000A83C120143D000E54CF561
:1009B9004EE54BF54DC000A84E120161D000C000B4
:1009C900A84D120161D0007441120159E532240188
:1009D900D4F54B754C00C000A84C120161D000C081
:1009E90000A84B120161D000740A120159C209858D
:1009F9003247754800754900754A0012029B200864
:100A090028754732754800754900754A0012029BDE
:100A190020080A7E00AE3CBE60030206AF120584C0
:100A29002004030206AF020979E474011200F97A7D
:100A3900021205DAC0E074011412013ED0E0C0834D
:100A4900C082C0E090002E120131D0E0D082D08364
:100A590075400FD206C20AC0E074011412013CD0DD
:100A6900E0C083C082C0E0900061120131D0E0D0C3
:100A790082D083E4F53C30097C1204BCE53C2401B6
:100A8900D4F53CB40007E53D2401D4F53DC0E0743C
:100A9900031412013CD0E0C000A83D120143D0006C
:100AA900C0E074051412013CD0E0C000A83C12015A
:100AB90043D000E54CF54EE54BF54DC000A84E126C
:100AC9000161D000C000A84D120161D0007442122A
:100AD9000159E5332401D4F54B754C00C000A84CED
:100AE900120161D000C000A84B120161D000740A44
:100AF900120159C20985334375440075450075468D
:100B090000120177E54BB53C02800C1205842004E4
:100B1900030206AF020A7FE474011200F97A021295
:100B290005DAC0E074011412013ED0E0C083C0822E
:100B3900C0E090002E120131D0E0D082D083754000
:100B490064D206C20AE4F53CD206C0E0740114126C
:100B5900013CD0E0C083C082C0E090007212013134
:100B6900D0E0D082D0833009028003020BF712044F
:100B7900BCE53C2401D4F53CB40007E53D2401D48F
:100B8900F53DC0E074031412013CD0E0C000A83D5B
:100B9900120143D000C0E074051412013CD0E0C03A
:100BA90000A83C120143D000E54CF54EE54BF54D4C
:100BB900C000A84E120161D000C000A84D12016109
:100BC900D0007443120159E5372401D4F54BE538B7
:100BD9002401D4F54CC000A84C120161D000C0001A
:100BE900A84B120161D000740A120159C209853754
:100BF90047853848754900754A0012029B20080C40
:100C09001205842004030206AF020B6FE47401127B
:100C190000F97A021205DAC0E074011412013ED01B
:100C2900E0C083C082C0E090002E120131D0E0D034
:100C390082D08375400FD206C20AC0E07401141233
:100C4900013CD0E0C083C082C0E090008312013132
:100C5900D0E0D082D083E4F53C30097C1204BCE5B5
:100C69003C2401D4F53CB40007E53D2401D4F53D0D
:100C7900C0E074031412013CD0E0C000A83D120189
:100C890043D000C0E074051412013CD0E0C000A8B4
:100C99003C120143D000E54CF54EE54BF54DC00043
:100CA900A84E120161D000C000A84D120161D00008
:100CB9007444120159E5392401D4F54B754C00C02F
:100CC90000A84C120161D000C000A84B120161D0EC
:100CD90000740A120159C209E539B53C02800C12A7
:100CE90005842004030206AF020C62E474011200B9
:100CF900F97A021205DAC0E074011412013ED0E05B
:100D0900C083C082C0E090002E120131D0E0D082B1
:100D1900D083754000E4F53CD206C20AC0E07401F4
:100D29001412013CD0E0C083C082C0E0900094124C
:100D39000131D0E0D082D0833009581204BCE53C9F
:100D49002401D4F53CB40007E53D2401D4F53DC0A8
:100D5900E074031412013CD0E0C000A83D12014325
:100D6900D000C0E074051412013CD0E0C000A83CDA
:100D7900120143D0007445120159C000A84C120158
:100D890061D000C000A84B120161D000740A1201A1
:100D990059C20975473C754800754900754A0012E2
:100DA900027F20080912058420048D753E00020681
:010DB900AF8A
:00000001FF
