:03000000020622D3
:03000B000203FDF0
:03002B00020427A5
:10002E00546F3D202020432020546A3D2020432041
:10003E0000733120202C202020723220202C2020F2
:10004E002000743D202020202020205072656865FD
:10005E00617400743D20202020202020536F616B9E
:10006E00696E6700743D2020202020202020202053
:10007E0052616D7000743D202020202020202052DF
:10008E0065666C6F7700743D202020202020204371
:07009E006F6F6C696E6700D3
:1000A500C000788500D8FDD00022C000C0017928A5
:1000B5007868D8FED9FADAF6D001D00022D29412A7
:1000C50000A5C29422A2E79283A2E69282A2E592BB
:1000D50081A2E492801200C21200A5A2E39283A23B
:1000E500E29282A2E19281A2E092801200C222D223
:1000F500930200CAC2930200CAC294C0027A2812AF
:1001050000AFD00274331200F974331200F974325F
:100115001200F974281200F9740C1200F974011216
:1001250000F9C0027A021200AFD00222E493600601
:100135001200F4A380F622444044800200F9C0E096
:10014500E8C4540F44301200F4E8540F4430120050
:04015500F4D0E022E0
:100159003099FDC299F59922C0E0E8C4540F4430A2
:10016900120159E8540F4430120159D0E022C0E07D
:10017900C0D0C000C001C002E4F546F547F548F516
:1001890049F54A7A20E541A2E77904783EE633F653
:1001990008D9FA79057846E636D4F608D9F9DAE5C0
:1001A900D002D001D000D0D0D0E022C0E0C0D0C071
:1001B90000C001C002E4F546F547F548F549F54A9E
:1001C9007A20E541A2E77904783EE633F608D9FAC0
:1001D90079057846C0D0E6243320E70224D020E30D
:1001E9000224FDD0D033F608D9EADAD6D002D001FC
:1001F900D000D0D0D0E022C0E0C0D0C000C001C043
:10020900027A207905C3784AE613C0D030E7022480
:10021900D030E30224FDF618D0D0D9EC7904784126
:10022900E613F618D9FADADBD002D001D000D0D023
:10023900D0E022C0E0C0D0E53E2542F53EE53F359D
:1002490043F53FE5403544F540E5413545F541D0B5
:10025900D0D0E022C0E0C0D0C3E53E9542F53EE5EE
:100269003F9543F53FE5409544F540E5419545F512
:1002790041D0D0D0E022C0E0C0D0C3E53E9542E5F0
:100289003F9543E5409544E54195459208D0D0D046
:10029900E022C0E0C0D0C3E542953EE543953FE585
:1002A900449540E54595419208D0D0D0E022C0E080
:1002B900C0D0C208C3E542953E7014E543953F702E
:1002C9000EE54495407008E54595417002D208D085
:1002D900D0D0E0221202B720080302029B221202A8
:1002E900B720080302027F22C0E0C0F0C0D0C000DE
:1002F900C001C002C003E53E8542F0A4F8A9F0E5BB
:100309003F8542F0A429F9E435F0FAE53E8543F04A
:10031900A429F9E5F03AFAE433FBE5408542F0A473
:100329002AFAE5F03BFBE53F8543F0A42AFAE5F01C
:100339003BFBE53E8544F0A42AFAE5F03BFBE541A9
:100349008542F0A42BFBE5408543F0A42BFBE53F58
:100359008544F0A42BFBE53E8545F0A42BFB8B419E
:100369008A40893F883ED003D002D001D000D0D046
:10037900D0F0D0E022C0E0C0D0C000C001C002C0AF
:1003890003C0047C20E4F8F9FAFBC3E53E33F53EEB
:10039900E53F33F53FE54033F540E54133F541E8C5
:1003A90033F8E933F9EA33FAEB33FBC3E89542E969
:1003B9009543EA9544EB95454013E89542F8E9954C
:1003C90043F9EA9544FAEB9545FB433E01DCBBD082
:1003D90004D003D002D001D000D0D0D0E022438E87
:1003E90008E58954F04401F589758CE0758A57D27E
:1003F900A9D28C22C28C758CE0758A57D28CB284B2
:100409003275C80075CDD775CC7975C9A075CBD7AC
:1004190075CA79753C00439B80D2CAD2AF22C2CF3C
:10042900C0D0C0E0053CC3E53D953CB39290E53CA6
:10043900B4642E753C00053A300513C0E07403140A
:1004490012013CD0E0C000A83A120143D0003006A6
:1004590007B28C200702C206C000A83E120161D073
:1004690000D0E0D0D032C0E074051412013CD0E0D5
:10047900C000A84A120143D000C000A84912014394
:10048900D000C000A848120143D000C000A84712FC
:100499000143D000C000A846120143D000C0E07457
:1004A900061412013CD0E022C2EFD2EE30EFFDE596
:1004B900C2540FF8E5C3C4C0E0540FF9D0E054F0BA
:1004C90048F82253E8F043E807753E00753F007588
:1004D90040007541007D641204B188428943754426
:1004E9000075450012023CDDEE75426475430075E6
:1004F900440075450012037E7542C87543C87544AA
:10050900007545001202F17542FF75430F754400ED
:1005190075450012037E7542E875430375440075FD
:1005290045001202F1754264754300754400754532
:10053900001202F175421D7543637544017545004A
:1005490012037E75422975430075440075450012F2
:10055900037E754214754300754400754500120207
:100569003C7542107543277544007545001202F128
:10057900120177C0E074051412013CD0E0C000A854
:1005890049120143D000C000A848120143D000C05D
:10059900E0742E1200F4D0E0C000A847120143D045
:1005A90000C000A846120143D0007A3212060F2279
:1005B900D200D201D202D203D204D295C280C28122
:1005C900C282C283C29320953C7A3212060F2095CB
:1005D90034D280D281D282D283D293C293A295920D
:1005E90000D293C280A2959201D280C281A2959233
:1005F90002D281C282A2959203D282C283A295922B
:1006090004D2837B0122C000C00179287868D8FE12
:10061900D9FADAF6D001D0002275AC0075AD0075B3
:10062900B30075B40075B10075B200438E104387ED
:100639008075985253C4DF53890F438920758DF70C
:10064900D28E43B30253B4FD53E8F043E80775F67D
:100659000043F68043E1011203E712040A1200FE87
:10066900C0E074011412013ED0E0C083C082C0E032
:1006790090002E120131D0E0D082D083C0E0740105
:100689001412013CD0E0C083C082C0E090003F1248
:100699000131D0E0D082D0837400D4F53BF50574E4
:1006A90030D4F5327460D4F5347400D4F536744519
:1006B900D4F538E53BD2CA753D00C207D206C0E081
:1006C90074031412013CD0E0C000A832120143D0D7
:1006D90000C0E074071412013CD0E0C000A8341235
:1006E9000143D000C0E0740B1412013CD0E0C000FB
:1006F900A836120143D000C0E0740E1412013CD098
:10070900E0C000A838120143D0001205B97A3212AC
:10071900060F1205B930000830010E30022780108B
:10072900E5322401D4F5328007E5322499D4F53233
:10073900C0E074031412013CD0E0C000A8321201D9
:1007490043D00080C51205B97A3212060F1205B9D5
:1007590030000830010E3002278010E5342401D41E
:10076900F5348007E5342499D4F534C0E0740714CE
:1007790012013CD0E0C000A834120143D00080C56A
:100789001205B97A3212060F1205B9300008300184
:100799000E30022780EAE5362401D4F5368007E5D4
:1007A900362499D4F536C0E0740B1412013CD0E01C
:1007B900C000A836120143D00080C51205B97A32AB
:1007C90012060F1205B930000830010E30022780D9
:1007D900EAE5382401D4F5388007E5382499D4F5B9
:1007E90038C0E0740E1412013CD0E0C000A83812E1
:1007F9000143D00080C51205B92004FA753B01E513
:100809003BB40154753D64E4F53AD206D205C0E023
:1008190074011412013CD0E0C083C082C0E0900092
:1008290050120131D0E0D082D0831204CC854039F6
:10083900E53995324002501DE5399432400250099C
:10084900E53A943C40030206BE1205B92004DB7563
:100859003B000206BE753B02E53BB4023B753D1405
:10086900E4F53AD206C0E074011412013CD0E0C0AC
:1008790083C082C0E0900061120131D0E0D082D003
:1008890083E53A95344002500C1205B92004F275FB
:100899003B000206BE753B03E53BB40341753D646D
:1008A900E4F53AD206C0E074011412013CD0E0C06C
:1008B90083C082C0E0900072120131D0E0D082D0B2
:1008C900831204CC854039E53995364002500C1223
:1008D90005B92004EC753B000206BE753B04E53BF7
:1008E900B4043B753D14E4F53AD206C0E074011432
:1008F90012013CD0E0C083C082C0E09000831201A5
:1009090031D0E0D082D083E53A95384002500C12BC
:1009190005B92004F2753B000206BE753B05753D1D
:1009290000C0E074011412013CD0E0C083C082C051
:10093900E0900094120131D0E0D082D083E4F53AFE
:10094900D2061204CC854839E539943C400250F26C
:10095900753B00C205753A00E53A940640FA02066D
:01096900BECF
:00000001FF
