:0300000002061ED7
:03000B000203FDF0
:03002B00020427A5
:10002E00546F3D202020432020546A3D323043201F
:10003E0000733120202C202020723220202C2020F2
:10004E002000743D202020202020205072656865FD
:10005E00617400743D20202020202020536F616B9E
:10006E00696E6700743D2020202020202020202053
:10007E0052616D7000743D202020202020202052DF
:10008E0065666C6F7700743D202020202020204371
:07009E006F6F6C696E6700D3
:1000A500C000788500D8FDD00022C000C0017928A5
:1000B5007868D8FED9FADAF6D001D00022D29412A7
:1000C50000A5C29422A2E79283A2E69282A2E592BB
:1000D50081A2E492801200C21200A5A2E39283A23B
:1000E500E29282A2E19281A2E092801200C222D223
:1000F500930200CAC2930200CAC294C0027A2812AF
:1001050000AFD00274331200F974331200F974325F
:100115001200F974281200F9740C1200F974011216
:1001250000F9C0027A021200AFD00222E493600601
:100135001200F4A380F622444044800200F9C0E096
:10014500E8C4540F44301200F4E8540F4430120050
:04015500F4D0E022E0
:100159003099FDC299F59922C0E0E8C4540F4430A2
:10016900120159E8540F4430120159D0E022C0E07D
:10017900C0D0C000C001C002E4F546F547F548F516
:1001890049F54A7A20E541A2E77904783EE633F653
:1001990008D9FA79057846E636D4F608D9F9DAE5C0
:1001A900D002D001D000D0D0D0E022C0E0C0D0C071
:1001B90000C001C002E4F546F547F548F549F54A9E
:1001C9007A20E541A2E77904783EE633F608D9FAC0
:1001D90079057846C0D0E6243320E70224D020E30D
:1001E9000224FDD0D033F608D9EADAD6D002D001FC
:1001F900D000D0D0D0E022C0E0C0D0C000C001C043
:10020900027A207905C3784AE613C0D030E7022480
:10021900D030E30224FDF618D0D0D9EC7904784126
:10022900E613F618D9FADADBD002D001D000D0D023
:10023900D0E022C0E0C0D0E53E2542F53EE53F359D
:1002490043F53FE5403544F540E5413545F541D0B5
:10025900D0D0E022C0E0C0D0C3E53E9542F53EE5EE
:100269003F9543F53FE5409544F540E5419545F512
:1002790041D0D0D0E022C0E0C0D0C3E53E9542E5F0
:100289003F9543E5409544E54195459208D0D0D046
:10029900E022C0E0C0D0C3E542953EE543953FE585
:1002A900449540E54595419208D0D0D0E022C0E080
:1002B900C0D0C208C3E542953E7014E543953F702E
:1002C9000EE54495407008E54595417002D208D085
:1002D900D0D0E0221202B720080302029B221202A8
:1002E900B720080302027F22C0E0C0F0C0D0C000DE
:1002F900C001C002C003E53E8542F0A4F8A9F0E5BB
:100309003F8542F0A429F9E435F0FAE53E8543F04A
:10031900A429F9E5F03AFAE433FBE5408542F0A473
:100329002AFAE5F03BFBE53F8543F0A42AFAE5F01C
:100339003BFBE53E8544F0A42AFAE5F03BFBE541A9
:100349008542F0A42BFBE5408543F0A42BFBE53F58
:100359008544F0A42BFBE53E8545F0A42BFB8B419E
:100369008A40893F883ED003D002D001D000D0D046
:10037900D0F0D0E022C0E0C0D0C000C001C002C0AF
:1003890003C0047C20E4F8F9FAFBC3E53E33F53EEB
:10039900E53F33F53FE54033F540E54133F541E8C5
:1003A90033F8E933F9EA33FAEB33FBC3E89542E969
:1003B9009543EA9544EB95454013E89542F8E9954C
:1003C90043F9EA9544FAEB9545FB433E01DCBBD082
:1003D90004D003D002D001D000D0D0D0E022438E87
:1003E90008E58954F04401F589758CE0758A57D27E
:1003F900A9D28C22C28C758CE0758A57D28CB284B2
:100409003275C80075CDD775CC7975C9A075CBD7AC
:1004190075CA79753C00439B80D2CAD2AF22C2CF3C
:10042900C0D0C0E0053CC3E53D953CB39290E53CA6
:10043900B46433753C00053A300518E53AD4F53A09
:10044900C0E074031412013CD0E0C000A83A1201C4
:1004590043D000300607B28C200702C206C000A8AC
:100469003E120161D000D0E0D0D032C0E074051452
:1004790012013CD0E0C000A84A120143D000C000DC
:10048900A849120143D000C000A848120143D00076
:10049900C000A847120143D000C000A8461201437A
:1004A900D000C0E074061412013CD0E022C2EFD2A1
:1004B900EE30EFFDE5C2540FF8E5C3C4C0E0540FB8
:1004C900F9D0E054F048F82253E8F043E807753EC4
:1004D90000753F007540007541007D641204B688BF
:1004E90042894375440075450012023CDDEE7542B0
:1004F9006475430075440075450012037E7542C852
:100509007543C87544007545001202F17542FF75BF
:10051900430F75440075450012037E7542E8754323
:10052900037544007545001202F175426475430074
:100539007544007545001202F175421D75436375D6
:10054900440175450012037E7542297543007544BF
:100559000075450012037E75421475430075440009
:1005690075450012023C75421075432775440075A4
:1005790045001202F1120177C0E0740D1412013E18
:10058900D0E0C000A849120143D000C000A8481219
:100599000143D000C0E0742E1200F4D0E0C000A8DE
:1005A90047120143D0007A3212060B22D200D2013F
:1005B900D202D203D204D295C280C281C282C2833E
:1005C900C29320953C7A3212060B209534D280D200
:1005D90081D282D283D293C293A2959200D293C23E
:1005E90080A2959201D280C281A2959202D281C243
:1005F90082A2959203D282C283A2959204D2837B6E
:100609000122C000C00179287868D8FED9FADAF643
:10061900D001D0002275AC0075AD0075B30075B47A
:100629000075B10075B200438E10438780759852EA
:1006390053C4DF53890F438920758DF7D28E43B395
:100649000253B4FD53E8F043E80775F60043F6801A
:1006590043E1011203E712040A1200FEC0E074012B
:100669001412013ED0E0C083C082C0E090002E1277
:100679000131D0E0D082D083C0E074011412013C72
:10068900D0E0C083C082C0E090003F120131D0E0C9
:10069900D082D0837400D4F53BF5057430D4F5329B
:1006A9007460D4F5347400D4F5367445D4F53875CE
:1006B9003B00D2CA753D00C207D206C0E0740314DC
:1006C90012013CD0E0C000A832120143D000C0E0C2
:1006D90074071412013CD0E0C000A834120143D0C1
:1006E90000C0E0740B1412013CD0E0C000A836121F
:1006F9000143D000C0E0740E1412013CD0E0C000E8
:10070900A838120143D0001205B57A3212060B122D
:1007190005B5300008300112300235801EE532245B
:1007290001D4B470127532308011E5322499D4B4F1
:1007390029057532708004F5328000C0E074031415
:1007490012013CD0E0C000A832120143D00080B7AA
:100759001205B57A3212060B1205B53000083001C0
:100769000E3002278010E5342401D4F5348007E5E2
:10077900342499D4F534C0E074071412013CD0E054
:10078900C000A834120143D00080C51205B57A32E1
:1007990012060B1205B530000830011430023980F9
:1007A900EAE5362401D4B45014753600F5368013C1
:1007B900E5362499D4B450057536508006F536804F
:1007C90002F536C0E0740B1412013CD0E0C000A859
:1007D90036120143D00080B31205B57A3212060BE6
:1007E9001205B530000830011230023780EAE538C9
:1007F9002401D4B480127538408013E5382499D483
:10080900B439057538808006F5388002F538C0E0BE
:10081900740E1412013CD0E0C000A838120143D074
:100829000080B51205B57A3212060B1205B52004FF
:10083900F202083D74011200F9C0E07401141201BA
:100849003ED0E0C083C082C0E090002E120131D0BA
:10085900E0D082D083753D64E4F53AD206D205C072
:10086900E074011412013CD0E0C083C082C0E09062
:100879000050120131D0E0D082D0838532428533D5
:10088900437544007545001204D112029B200827C4
:1008990075423275430075440075450012029B206C
:1008A90008E5E53A946040030206BB1205B5200449
:1008B900D6753B000206BB753B02E53BB4025F758A
:1008C9003D1474011200F9C0E074011412013ED004
:1008D900E0C083C082C0E090002E120131D0E0D088
:1008E90082D083C0E074011412013CD0E0C083C0FF
:1008F90082C0E0900061120131D0E0D082D083E45F
:10090900F53AD2061204D1E53A95344002500C1258
:1009190005B52004EF753B000206BB753B03E53BBB
:10092900B40341753D64E4F53AD206C0E07401149C
:1009390012013CD0E0C083C082C0E0900072120175
:1009490031D0E0D082D0831204D1854039E5399580
:10095900364002500C1205B52004EC753B00020626
:10096900BB753B04E53BB4043B753D14E4F53AD251
:1009790006C0E074011412013CD0E0C083C082C0FB
:10098900E0900083120131D0E0D082D083E53A951E
:10099900384002500C1205B52004F2753B000206DE
:1009A900BB753B05753D00C0E074011412013CD0D4
:1009B900E0C083C082C0E0900094120131D0E0D041
:1009C90082D083E4F53AD2061204D1854839E53953
:1009D900943C400250F2753B00C205753A00E53A75
:0C09E900940640FA74011200F90206BBEB
:00000001FF
