:030000000205E016
:03000B000203FDF0
:03002B00020427A5
:10002E00546F3D20202020432020546A3D3230431F
:10003E0000733120202C20202020723220202C20F2
:10004E002000743D202020202020205072656865FD
:10005E00617400743D20202020202020536F616B9E
:10006E00696E6700743D2020202020202020202053
:10007E0052616D7000743D202020202020202052DF
:10008E0065666C6F7700743D202020202020204371
:07009E006F6F6C696E6700D3
:1000A500C000788500D8FDD00022C000C0017928A5
:1000B5007868D8FED9FADAF6D001D00022D29412A7
:1000C50000A5C29422A2E79283A2E69282A2E592BB
:1000D50081A2E492801200C21200A5A2E39283A23B
:1000E500E29282A2E19281A2E092801200C222D223
:1000F500930200CAC2930200CAC294C0027A2812AF
:1001050000AFD00274331200F974331200F974325F
:100115001200F974281200F9740C1200F974011216
:1001250000F9C0027A021200AFD00222E493600601
:100135001200F4A380F622444044800200F9C0E096
:10014500E8C4540F44301200F4E8540F4430120050
:04015500F4D0E022E0
:100159003099FDC299F59922C0E0E8C4540F4430A2
:10016900120159E8540F4430120159D0E022C0E07D
:10017900C0D0C000C001C002E4F546F547F548F516
:1001890049F54A7A20E541A2E77904783EE633F653
:1001990008D9FA79057846E636D4F608D9F9DAE5C0
:1001A900D002D001D000D0D0D0E022C0E0C0D0C071
:1001B90000C001C002E4F546F547F548F549F54A9E
:1001C9007A20E541A2E77904783EE633F608D9FAC0
:1001D90079057846C0D0E6243320E70224D020E30D
:1001E9000224FDD0D033F608D9EADAD6D002D001FC
:1001F900D000D0D0D0E022C0E0C0D0C000C001C043
:10020900027A207905C3784AE613C0D030E7022480
:10021900D030E30224FDF618D0D0D9EC7904784126
:10022900E613F618D9FADADBD002D001D000D0D023
:10023900D0E022C0E0C0D0E53E2542F53EE53F359D
:1002490043F53FE5403544F540E5413545F541D0B5
:10025900D0D0E022C0E0C0D0C3E53E9542F53EE5EE
:100269003F9543F53FE5409544F540E5419545F512
:1002790041D0D0D0E022C0E0C0D0C3E53E9542E5F0
:100289003F9543E5409544E54195459208D0D0D046
:10029900E022C0E0C0D0C3E542953EE543953FE585
:1002A900449540E54595419208D0D0D0E022C0E080
:1002B900C0D0C208C3E542953E7014E543953F702E
:1002C9000EE54495407008E54595417002D208D085
:1002D900D0D0E0221202B720080302029B221202A8
:1002E900B720080302027F22C0E0C0F0C0D0C000DE
:1002F900C001C002C003E53E8542F0A4F8A9F0E5BB
:100309003F8542F0A429F9E435F0FAE53E8543F04A
:10031900A429F9E5F03AFAE433FBE5408542F0A473
:100329002AFAE5F03BFBE53F8543F0A42AFAE5F01C
:100339003BFBE53E8544F0A42AFAE5F03BFBE541A9
:100349008542F0A42BFBE5408543F0A42BFBE53F58
:100359008544F0A42BFBE53E8545F0A42BFB8B419E
:100369008A40893F883ED003D002D001D000D0D046
:10037900D0F0D0E022C0E0C0D0C000C001C002C0AF
:1003890003C0047C20E4F8F9FAFBC3E53E33F53EEB
:10039900E53F33F53FE54033F540E54133F541E8C5
:1003A90033F8E933F9EA33FAEB33FBC3E89542E969
:1003B9009543EA9544EB95454013E89542F8E9954C
:1003C90043F9EA9544FAEB9545FB433E01DCBBD082
:1003D90004D003D002D001D000D0D0D0E022438E87
:1003E90008E58954F04401F589758CE0758A57D27E
:1003F900A9D28C22C28C758CE0758A57D28CB284B2
:100409003275C80075CDD775CC7975C9A075CBD7AC
:1004190075CA79753C00439B80D2CAD2AF22C2CF3C
:10042900C0D0C0E0053CC3E53D953CB39290E53CA6
:10043900B4640E753C00D209C28C300604B28CC279
:1004490006D0E0D0D032C0E074051412013CD0E0EF
:10045900C000A84A120143D000C000A849120143B4
:10046900D000C000A848120143D000C0E0742E1289
:1004790000F4D0E0C000A847120143D000C000A892
:1004890046120143D000C0E074061412013CD0E0CA
:1004990022C2EFD2EE30EFFDE5C2540FF8E5C3C436
:1004A900C0E0540FF9D0E054F048F82253E8F04383
:1004B900E807753E00753F007540007541007D6491
:1004C90012049A8842894375440075450012023C1A
:1004D900DDEE7542647543007544007545001203ED
:1004E9007E7542C87543C87544007545001202F10E
:1004F9007542FF75430F75440075450012037E75FB
:1005090042647543007544007545001202F1754255
:100519005B75430075440075450012037E754229D9
:1005290075430075440075450012037E75421475C4
:10053900430075440075450012023C120177C0E082
:1005490074041412013ED0E0C000A847120143D040
:1005590000C000A846120143D00074821200F9C0FD
:10056900E0743D1200F4D0E07A321205CD22D200B7
:10057900D201D202D203D204D295C280C281C282F0
:10058900C283C29320953C7A321205CD209534D28C
:1005990080D281D282D283D293C293A2959200D281
:1005A90093C280A2959201D280C281A2959202D271
:1005B90081C282A2959203D282C283A2959204D269
:1005C900837B0122C000C00179287868D8FED9FA56
:1005D900DAF6D001D0002275817F75AC0075AD00C7
:1005E90075B30075B40075B10075B200438E104340
:1005F900878075985253C4DF53890F438920758DBD
:10060900F7D28E43B30253B4FD53E8F043E80775BC
:10061900F60043F68043E1011203E712040A1200CF
:10062900FEC0E074011412013ED0E0C083C082C054
:10063900E090002E120131D0E0D082D083C0E07466
:10064900011412013CD0E0C083C082C0E090003F99
:10065900120131D0E0D082D0837400D4F53BF50586
:100669007430D4F5327460D4F5337400D4F535742C
:1006790045D4F537E4C20AD2CAC28C753D00C20717
:10068900D206C0E074011412013ED0E0C083C082DA
:10069900C0E090002E120131D0E0D082D083C0E0BA
:1006A90074011412013CD0E0C083C082C0E0900004
:1006B9003F120131D0E0D082D083C0E0740314121C
:1006C900013CD0E0C000A832120143D000C0E07460
:1006D900071412013CD0E0C000A833120143D00036
:1006E900C0E0740C1412013CD0E0C000A83512011E
:1006F90043D000C0E0740F1412013CD0E0C000A840
:1007090037120143D0001205777A321205CD12054E
:1007190077300008300112300235801EE53224019D
:10072900D4B470127532308011E5322499D4B429C9
:10073900057532708004F5328000C0E0740314122C
:10074900013CD0E0C000A832120143D00080B712AA
:1007590005777A321205CD1205773000083001117C
:10076900300254801CE5332401D4B40010D20A802D
:10077900C9E5332499D4B49904C20AF533F5338011
:1007890000C0E074071412013CD0E0C000A8331285
:100799000143D000C0E074061412013CD0E0300AD5
:1007A9000BC0E074311200F4D0E080A3C0E07420E3
:1007B9001200F4D0E080981205777A321205CD1232
:1007C900057730000830011430023980EAE5352414
:1007D90001D4B45014753500F5358013E5352499E5
:1007E900D4B450057535508006F5358002F535C00D
:1007F900E0740C1412013CD0E0C000A8351201438A
:10080900D00080B31205777A321205CD1205773000
:10081900000830011230023780EAE5372401D4B4E8
:1008290080127537408013E5372499D4B43905759A
:1008390037808006F5378002F537C0E0740F14124F
:10084900013CD0E0C000A837120143D00080B512A6
:1008590005777A321205CD1205772004F20208696C
:10086900E474011200F97A021205CDC0E074011492
:1008790012013ED0E0C083C082C0E090002E120178
:1008890031D0E0D082D083753D64D206E53224515F
:10089900F532C0E074011412013CD0E0C083C0827B
:1008A900C0E0900050120131D0E0D082D083E475CD
:1008B9003A001204B5300941E53A2401D4F53AC0A9
:1008C900E074031412013CD0E0C000A83A120143BD
:1008D900D000C000A848120161D000742E1201593D
:1008E900C000A847120161D000C000A846120161EA
:1008F900D000740A120159C2098532427543007544
:10090900440075450012029B200828754232754340
:100919000075440075450012029B20080A7E00AE4E
:100929003ABE600302067D120577200485753B00F7
:1009390002067DE474011200F97A021205CDC0E0C5
:1009490074011412013ED0E0C083C082C0E090005F
:100959002E120131D0E0D082D083753D14D206C069
:10096900E074011412013CD0E0C083C082C0E09061
:0F0979000061120131D0E0D082D083E4753A00E2
:00000001FF
