:030000000205E016
:03000B000203FDF0
:03002B00020427A5
:10002E00546F3D20202020432020546A3D3230431F
:10003E0000733120202C20202020722020202C2004
:10004E002000743D202020202020205072656865FD
:10005E00617400743D20202020202020536F616B9E
:10006E00696E6700743D2020202020202020202053
:10007E0052616D7000743D202020202020202052DF
:10008E0065666C6F7700743D202020202020204371
:07009E006F6F6C696E6700D3
:1000A500C000788500D8FDD00022C000C0017928A5
:1000B5007868D8FED9FADAF6D001D00022D29412A7
:1000C50000A5C29422A2E79283A2E69282A2E592BB
:1000D50081A2E492801200C21200A5A2E39283A23B
:1000E500E29282A2E19281A2E092801200C222D223
:1000F500930200CAC2930200CAC294C0027A2812AF
:1001050000AFD00274331200F974331200F974325F
:100115001200F974281200F9740C1200F974011216
:1001250000F9C0027A021200AFD00222E493600601
:100135001200F4A380F622444044800200F9C0E096
:10014500E8C4540F44301200F4E8540F4430120050
:04015500F4D0E022E0
:100159003099FDC299F59922C0E0E8C4540F4430A2
:10016900120159E8540F4430120159D0E022C0E07D
:10017900C0D0C000C001C002E4F548F549F54AF510
:100189004BF54C7A20E543A2E779047840E633F64B
:1001990008D9FA79057848E636D4F608D9F9DAE5BE
:1001A900D002D001D000D0D0D0E022C0E0C0D0C071
:1001B90000C001C002E4F548F549F54AF54BF54C94
:1001C9007A20E543A2E779047840E633F608D9FABC
:1001D90079057848C0D0E6243320E70224D020E30B
:1001E9000224FDD0D033F608D9EADAD6D002D001FC
:1001F900D000D0D0D0E022C0E0C0D0C000C001C043
:10020900027A207905C3784CE613C0D030E702247E
:10021900D030E30224FDF618D0D0D9EC7904784324
:10022900E613F618D9FADADBD002D001D000D0D023
:10023900D0E022C0E0C0D0E5402544F540E5413595
:1002490045F541E5423546F542E5433547F543D0A5
:10025900D0D0E022C0E0C0D0C3E5409544F540E5E8
:10026900419545F541E5429546F542E5439547F502
:1002790043D0D0D0E022C0E0C0D0C3E5409544E5EA
:10028900419545E5429546E54395479208D0D0D03A
:10029900E022C0E0C0D0C3E5449540E5459541E57D
:1002A900469542E54795439208D0D0D0E022C0E078
:1002B900C0D0C208C3E54495407014E54595417026
:1002C9000EE54695427008E54795437002D208D07D
:1002D900D0D0E0221202B720080302029B221202A8
:1002E900B720080302027F22C0E0C0F0C0D0C000DE
:1002F900C001C002C003E5408544F0A4F8A9F0E5B7
:10030900418544F0A429F9E435F0FAE5408545F042
:10031900A429F9E5F03AFAE433FBE5428544F0A46F
:100329002AFAE5F03BFBE5418545F0A42AFAE5F018
:100339003BFBE5408546F0A42AFAE5F03BFBE543A3
:100349008544F0A42BFBE5428545F0A42BFBE54150
:100359008546F0A42BFBE5408547F0A42BFB8B4396
:100369008A4289418840D003D002D001D000D0D040
:10037900D0F0D0E022C0E0C0D0C000C001C002C0AF
:1003890003C0047C20E4F8F9FAFBC3E54033F540E7
:10039900E54133F541E54233F542E54333F543E8B9
:1003A90033F8E933F9EA33FAEB33FBC3E89544E967
:1003B9009545EA9546EB95474013E89544F8E99544
:1003C90045F9EA9546FAEB9547FB434001DCBBD07A
:1003D90004D003D002D001D000D0D0D0E022438E87
:1003E90008E58954F04401F589758CE0758A57D27E
:1003F900A9D28C22C28C758CE0758A57D28CB284B2
:100409003275C80075CDD775CC7975C9A075CBD7AC
:1004190075CA79753E00439B80D2CAD2AF22C2CF3A
:10042900C0D0C0E0053EC3E53F953EB39290E53E9E
:10043900B4640E753E00D209C28C300604B28CC277
:1004490006D0E0D0D032C0E074051412013CD0E0EF
:10045900C000A84C120143D000C000A84B120143B0
:10046900D000C000A84A120143D000C0E0742E1287
:1004790000F4D0E0C000A849120143D000C000A890
:1004890048120143D000C0E074061412013CD0E0C8
:1004990022C2EFD2EE30EFFDE5C2540FF8E5C3C436
:1004A900C0E0540FF9D0E054F048F82253E8F04383
:1004B900E8077540007541007542007543007D6489
:1004C90012049A8844894575460075470012023C12
:1004D900DDEE7544647545007546007547001203E5
:1004E9007E7544C87545C87546007547001202F106
:1004F9007544FF75450F75460075470012037E75F3
:1005090044647545007546007547001202F175444B
:100519005B75450075460075470012037E754429D1
:1005290075450075460075470012037E75441475BC
:10053900450075460075470012023C120177C0E07C
:1005490074041412013ED0E0C000A849120143D03E
:1005590000C000A848120143D00074821200F9C0FB
:10056900E0743D1200F4D0E07A641205CD22D20085
:10057900D201D202D203D204D295C280C281C282F0
:10058900C283C29320953C7A321205CD209534D28C
:1005990080D281D282D283D293C293A2959200D281
:1005A90093C280A2959201D280C281A2959202D271
:1005B90081C282A2959203D282C283A2959204D269
:1005C900837B0122C000C00179287868D8FED9FA56
:1005D900DAF6D001D0002275817F75AC0075AD00C7
:1005E90075B30075B40075B10075B200438E104340
:1005F900878075985253C4DF53890F438920758DBD
:10060900F7D28E43B30253B4FD53E8F043E80775BC
:10061900F60043F68043E1011203E712040A1200CF
:10062900FEC0E074011412013ED0E0C083C082C054
:10063900E090002E120131D0E0D082D083C0E07466
:10064900011412013CD0E0C083C082C0E090003F99
:10065900120131D0E0D082D0837400F53DF50574E4
:1006690030F53275403C754100754200754300858F
:1006790040338541347535007536007540C875417C
:10068900007542007543008540378541387539004A
:10069900753A007445F539E4D2CAC28C753F00C277
:1006A90007D206C0E074011412013ED0E0C083C035
:1006B90082C0E090002E120131D0E0D082D083C0F8
:1006C900E074011412013CD0E0C083C082C0E09004
:1006D900003F120131D0E0D082D083C0E07403140E
:1006E90012013CD0E0C000A832120143D000C0E0A2
:1006F90074051412013CD0E08533408534417542BC
:1007090000754300120177C000A849120143D000C7
:10071900C000A848120143D000C0E07405141201BA
:100729003CD0E0C0E0742C1200F4D0E0C0E0740AC0
:100739001412013CD0E08537408538417542007577
:100749004300120177C000A849120143D000C0003C
:10075900A848120143D000C0E0740A1412013CD029
:10076900E0C0E074721200F4D0E0C0E0740E14121C
:10077900013CD0E0C0E0742C1200F4D0E0C0E07479
:100789000F1412013CD0E0C000A839120143D00077
:100799001205777A321205CD12057730000830013B
:1007A90012300235801EE5322401D4B4701275323C
:1007B900308011E5322499D4B4290575327080044A
:1007C900F5328000C0E074031412013CD0E0C0008F
:1007D900A832120143D00080B71205777A32120588
:1007E900CD12057730000830010930024A8008052A
:1007F90033800415338000C0E074051412013CD025
:10080900E085334085344175420075430012017714
:10081900C000A849120143D000C000A848120143F2
:10082900D000C0E074051412013CD0E0C0E0742C83
:100839001200F4D0E080A21205777A321205CD12A7
:10084900057730000830010930026380EA053780F6
:100859000A15378006F5378002F537C0E0740A14A7
:1008690012013CD0E0853740853841754200754317
:1008790000120177C000A849120143D000C000A8A6
:1008890048120143D000C0E0740A1412013CD0E0C0
:10089900C0E074721200F4D0E0C0E0740E141201CA
:1008A9003CD0E0C0E0742C1200F4D0E0808912053D
:1008B900777A321205CD12057730000830011230EF
:1008C900023780EAE5392401D4B4801275394080B1
:1008D90013E5392499D4B439057539808006F53979
:1008E9008002F539C0E0740F1412013CD0E0C00059
:1008F900A839120143D00080B51205777A32120562
:10090900CD1205772004F2020913020B47E47401A2
:100919001200F97A021205CDC0E074011412013EE9
:10092900D0E0C083C082C0E090002E120131D0E037
:10093900D082D083753F64D206E5322451F532C0A6
:10094900E074011412013CD0E0C083C082C0E09081
:100959000050120131D0E0D082D083E4753C0030E0
:1009690009441204B5E53C2401D4F53CC0E0740304
:100979001412013CD0E0C000A83C120143D000C0D1
:1009890000A84A120161D000742E120159C000A8B2
:1009990049120161D000C000A848120161D0007459
:1009A9000A120159C2098532447545007546007518
:1009B900470012029B20082575443275450075468B
:1009C9000075470012029B20080A7E00AE3CBE60FB
:1009D900030206A01205772004850206A0E474012B
:1009E9001200F97A021205CDC0E074011412013E19
:1009F900D0E0C083C082C0E090002E120131D0E067
:100A0900D082D083753F14D206C0E074011412015C
:100A19003CD0E0C083C082C0E0900061120131D0B7
:100A2900E0D082D083E4F53C3009441204B5E53CBA
:100A39002401D4F53CC0E074031412013CD0E0C099
:100A490000A83C120143D000C000A84A120161D09D
:100A590000742E120159C000A849120161D000C0CA
:100A690000A848120161D000740A120159C209850F
:100A79003340754100754200754300120177E5481E
:100A8900B53C02800912057720049D0206A0E47492
:100A9900011200F97A021205CDC0E07401141201A5
:100AA9003ED0E0C083C082C0E090002E120131D058
:100AB900E0D082D083753F64E4F53CD206C0E0748F
:100AC900011412013CD0E0C083C082C0E0900072E2
:100AD900120131D0E0D082D0833009441204B5E547
:100AE9003C2401D4F53CC0E074031412013CD0E06D
:100AF900C000A83C120143D000C000A84A120161FD
:100B0900D000742E120159C000A849120161D00009
:100B1900C000A848120161D000740A120159C20923
:100B290085374485384575460075470012029B2074
:100B3900080C1205772004A1753D000206A0E47493
:100B4900011200F97A021205CDC0E07401141201F4
:100B59003ED0E0C083C082C0E090002E120131D0A7
:100B6900E0D082D083753F14D206C0E0740114121C
:100B7900013CD0E0C083C082C0E090008312013103
:100B8900D0E0D082D083E4F53C3009441204B5E5C5
:100B99003C2401D4F53CC0E074031412013CD0E0BC
:100BA900C000A83C120143D000C000A84A1201614C
:100BB900D000742E120159C000A849120161D00059
:100BC900C000A848120161D000740A120159C20973
:100BD900E539B53C0280091205772004AC0206A06C
:100BE900E474011200F97A021205CDC0E07401140F
:100BF90012013ED0E0C083C082C0E090002E1201F5
:100C090031D0E0D082D083753F00E4F53CD206C0F4
:100C1900E074011412013CD0E0C083C082C0E090AE
:100C29000094120131D0E0D082D0833009441204FB
:100C3900B5E53C2401D4F53CC0E074031412013C31
:100C4900D0E0C000A83C120143D000C000A84A125D
:100C59000161D000742E120159C000A84912016126
:100C6900D000C000A848120161D000740A120159CD
:100C7900C20975443C754500754600754700120266
:100C89007F2008091205772004A1753D000206A0FE
:00000001FF
